{
  "_format": "hh-sol-artifact-1",
  "contractName": "TokenizedBallot",
  "sourceName": "contracts/TokenizedBallot.sol",
  "abi": [
    {
      "inputs": [
        {
          "internalType": "bytes32[]",
          "name": "_proposalNames",
          "type": "bytes32[]"
        },
        {
          "internalType": "address",
          "name": "_tokenContract",
          "type": "address"
        },
        {
          "internalType": "uint256",
          "name": "_targetBlockNumber",
          "type": "uint256"
        }
      ],
      "stateMutability": "nonpayable",
      "type": "constructor"
    },
    {
      "inputs": [
        {
          "internalType": "uint256",
          "name": "value",
          "type": "uint256"
        },
        {
          "internalType": "uint256",
          "name": "length",
          "type": "uint256"
        }
      ],
      "name": "StringsInsufficientHexLength",
      "type": "error"
    },
    {
      "inputs": [],
      "name": "getProposalsCount",
      "outputs": [
        {
          "internalType": "uint256",
          "name": "",
          "type": "uint256"
        }
      ],
      "stateMutability": "view",
      "type": "function"
    },
    {
      "inputs": [
        {
          "internalType": "address",
          "name": "voter",
          "type": "address"
        }
      ],
      "name": "getVotingPower",
      "outputs": [
        {
          "internalType": "uint256",
          "name": "",
          "type": "uint256"
        }
      ],
      "stateMutability": "view",
      "type": "function"
    },
    {
      "inputs": [
        {
          "internalType": "uint256",
          "name": "",
          "type": "uint256"
        }
      ],
      "name": "proposals",
      "outputs": [
        {
          "internalType": "bytes32",
          "name": "name",
          "type": "bytes32"
        },
        {
          "internalType": "uint256",
          "name": "voteCount",
          "type": "uint256"
        }
      ],
      "stateMutability": "view",
      "type": "function"
    },
    {
      "inputs": [
        {
          "internalType": "uint256",
          "name": "_newBlockNumber",
          "type": "uint256"
        }
      ],
      "name": "setTargetBlockNumber",
      "outputs": [],
      "stateMutability": "nonpayable",
      "type": "function"
    },
    {
      "inputs": [],
      "name": "targetBlockNumber",
      "outputs": [
        {
          "internalType": "uint256",
          "name": "",
          "type": "uint256"
        }
      ],
      "stateMutability": "view",
      "type": "function"
    },
    {
      "inputs": [],
      "name": "tokenContract",
      "outputs": [
        {
          "internalType": "contract IMyToken",
          "name": "",
          "type": "address"
        }
      ],
      "stateMutability": "view",
      "type": "function"
    },
    {
      "inputs": [
        {
          "internalType": "uint256",
          "name": "proposal",
          "type": "uint256"
        },
        {
          "internalType": "uint256",
          "name": "amount",
          "type": "uint256"
        }
      ],
      "name": "vote",
      "outputs": [],
      "stateMutability": "nonpayable",
      "type": "function"
    },
    {
      "inputs": [
        {
          "internalType": "address",
          "name": "",
          "type": "address"
        }
      ],
      "name": "votePowerSpent",
      "outputs": [
        {
          "internalType": "uint256",
          "name": "",
          "type": "uint256"
        }
      ],
      "stateMutability": "view",
      "type": "function"
    },
    {
      "inputs": [],
      "name": "winnerName",
      "outputs": [
        {
          "internalType": "bytes32",
          "name": "winnerName_",
          "type": "bytes32"
        }
      ],
      "stateMutability": "view",
      "type": "function"
    },
    {
      "inputs": [],
      "name": "winningProposal",
      "outputs": [
        {
          "internalType": "uint256",
          "name": "winningProposal_",
          "type": "uint256"
        },
        {
          "internalType": "bool",
          "name": "hasTie",
          "type": "bool"
        }
      ],
      "stateMutability": "view",
      "type": "function"
    }
  ],
  "bytecode": "0x60806040523480156200001157600080fd5b5060405162001a4538038062001a45833981810160405281019062000037919062000652565b816000806101000a81548173ffffffffffffffffffffffffffffffffffffffff021916908373ffffffffffffffffffffffffffffffffffffffff1602179055504381106200008b43620001a360201b60201c565b6200009c83620001a360201b60201c565b604051602001620000af929190620007e2565b6040516020818303038152906040529062000102576040517f08c379a0000000000000000000000000000000000000000000000000000000008152600401620000f991906200087a565b60405180910390fd5b508060028190555060005b83518110156200019957600160405180604001604052808684815181106200013a57620001396200089e565b5b60200260200101518152602001600081525090806001815401808255809150506001900390600052602060002090600202016000909190919091506000820151816000015560208201518160010155505080806001019150506200010d565b50505050620008fc565b606060006001620001ba846200028260201b60201c565b01905060008167ffffffffffffffff811115620001dc57620001db62000418565b5b6040519080825280601f01601f1916602001820160405280156200020f5781602001600182028036833780820191505090505b509050600082602001820190505b60011562000277578080600190039150507f3031323334353637383961626364656600000000000000000000000000000000600a86061a8153600a85816200026a5762000269620008cd565b5b049450600085036200021d575b819350505050919050565b600080600090507a184f03e93ff9f4daa797ed6e38ed64bf6a1f0100000000000000008310620002e4577a184f03e93ff9f4daa797ed6e38ed64bf6a1f0100000000000000008381620002da57620002d9620008cd565b5b0492506040810190505b6d04ee2d6d415b85acef8100000000831062000325576d04ee2d6d415b85acef810000000083816200031b576200031a620008cd565b5b0492506020810190505b662386f26fc1000083106200035857662386f26fc1000083816200034e576200034d620008cd565b5b0492506010810190505b6305f5e100831062000385576305f5e10083816200037b576200037a620008cd565b5b0492506008810190505b6127108310620003ae576127108381620003a457620003a3620008cd565b5b0492506004810190505b60648310620003d55760648381620003cb57620003ca620008cd565b5b0492506002810190505b600a8310620003e5576001810190505b80915050919050565b6000604051905090565b600080fd5b600080fd5b600080fd5b6000601f19601f8301169050919050565b7f4e487b7100000000000000000000000000000000000000000000000000000000600052604160045260246000fd5b620004528262000407565b810181811067ffffffffffffffff8211171562000474576200047362000418565b5b80604052505050565b600062000489620003ee565b905062000497828262000447565b919050565b600067ffffffffffffffff821115620004ba57620004b962000418565b5b602082029050602081019050919050565b600080fd5b6000819050919050565b620004e581620004d0565b8114620004f157600080fd5b50565b6000815190506200050581620004da565b92915050565b6000620005226200051c846200049c565b6200047d565b90508083825260208201905060208402830185811115620005485762000547620004cb565b5b835b81811015620005755780620005608882620004f4565b8452602084019350506020810190506200054a565b5050509392505050565b600082601f83011262000597576200059662000402565b5b8151620005a98482602086016200050b565b91505092915050565b600073ffffffffffffffffffffffffffffffffffffffff82169050919050565b6000620005df82620005b2565b9050919050565b620005f181620005d2565b8114620005fd57600080fd5b50565b6000815190506200061181620005e6565b92915050565b6000819050919050565b6200062c8162000617565b81146200063857600080fd5b50565b6000815190506200064c8162000621565b92915050565b6000806000606084860312156200066e576200066d620003f8565b5b600084015167ffffffffffffffff8111156200068f576200068e620003fd565b5b6200069d868287016200057f565b9350506020620006b08682870162000600565b9250506040620006c3868287016200063b565b9150509250925092565b600081905092915050565b7f54617267657420626c6f636b206d75737420626520696e20746865207061737460008201527f2c2063757272656e7420626c6f636b206e756d6265722069733a200000000000602082015250565b600062000736603b83620006cd565b91506200074382620006d8565b603b82019050919050565b600081519050919050565b60005b83811015620007795780820151818401526020810190506200075c565b60008484015250505050565b600062000792826200074e565b6200079e8185620006cd565b9350620007b081856020860162000759565b80840191505092915050565b7f20616e642074617267657420626c6f636b206e756d6265722069733a20000000815250565b6000620007ef8262000727565b9150620007fd828562000785565b91506200080a82620007bc565b601d820191506200081c828462000785565b91508190509392505050565b600082825260208201905092915050565b600062000846826200074e565b62000852818562000828565b93506200086481856020860162000759565b6200086f8162000407565b840191505092915050565b6000602082019050818103600083015262000896818462000839565b905092915050565b7f4e487b7100000000000000000000000000000000000000000000000000000000600052603260045260246000fd5b7f4e487b7100000000000000000000000000000000000000000000000000000000600052601260045260246000fd5b611139806200090c6000396000f3fe608060405234801561001057600080fd5b506004361061009e5760003560e01c806398e527d31161006657806398e527d31461014b5780639e90d0d914610169578063b384abef14610199578063bb4d4436146101b5578063e2ba53f0146101e55761009e565b8063013cf08b146100a35780632a8cd29e146100d457806332da83e8146100f257806355a373d61461010e578063609ff1bd1461012c575b600080fd5b6100bd60048036038101906100b89190610a8e565b610203565b6040516100cb929190610ae3565b60405180910390f35b6100dc610237565b6040516100e99190610b0c565b60405180910390f35b61010c60048036038101906101079190610a8e565b61023d565b005b610116610247565b6040516101239190610ba6565b60405180910390f35b61013461026b565b604051610142929190610bdc565b60405180910390f35b610153610329565b6040516101609190610b0c565b60405180910390f35b610183600480360381019061017e9190610c43565b610336565b6040516101909190610b0c565b60405180910390f35b6101b360048036038101906101ae9190610c70565b61034e565b005b6101cf60048036038101906101ca9190610c43565b61048c565b6040516101dc9190610b0c565b60405180910390f35b6101ed61057d565b6040516101fa9190610cb0565b60405180910390f35b6001818154811061021357600080fd5b90600052602060002090600202016000915090508060000154908060010154905082565b60025481565b8060028190555050565b60008054906101000a900473ffffffffffffffffffffffffffffffffffffffff1681565b600080600080915060005b60018054905081101561032357816001828154811061029857610297610ccb565b5b90600052602060002090600202016001015411156102e457600181815481106102c4576102c3610ccb565b5b906000526020600020906002020160010154915080935060009250610316565b81600182815481106102f9576102f8610ccb565b5b9060005260206000209060020201600101540361031557600192505b5b8080600101915050610276565b50509091565b6000600180549050905090565b60036020528060005260406000206000915090505481565b60006103593361048c565b9050818110156103803373ffffffffffffffffffffffffffffffffffffffff1660146105ec565b61038983610832565b61039285610832565b6040516020016103a493929190610e29565b604051602081830303815290604052906103f4576040517f08c379a00000000000000000000000000000000000000000000000000000000081526004016103eb9190610ede565b60405180910390fd5b5081600360003373ffffffffffffffffffffffffffffffffffffffff1673ffffffffffffffffffffffffffffffffffffffff16815260200190815260200160002060008282546104449190610f2f565b9250508190555081600184815481106104605761045f610ccb565b5b906000526020600020906002020160010160008282546104809190610f2f565b92505081905550505050565b6000600360008373ffffffffffffffffffffffffffffffffffffffff1673ffffffffffffffffffffffffffffffffffffffff1681526020019081526020016000205460008054906101000a900473ffffffffffffffffffffffffffffffffffffffff1673ffffffffffffffffffffffffffffffffffffffff16633a46b1a8846002546040518363ffffffff1660e01b815260040161052b929190610f72565b602060405180830381865afa158015610548573d6000803e3d6000fd5b505050506040513d601f19601f8201168201806040525081019061056c9190610fb0565b6105769190610fdd565b9050919050565b600080600061058a61026b565b9150915080156105be577f4e6f2057696e6e6572202d205449450000000000000000000000000000000000925050506105e9565b600182815481106105d2576105d1610ccb565b5b906000526020600020906002020160000154925050505b90565b60606000839050600060028460026106049190611011565b61060e9190610f2f565b67ffffffffffffffff81111561062757610626611053565b5b6040519080825280601f01601f1916602001820160405280156106595781602001600182028036833780820191505090505b5090507f30000000000000000000000000000000000000000000000000000000000000008160008151811061069157610690610ccb565b5b60200101907effffffffffffffffffffffffffffffffffffffffffffffffffffffffffffff1916908160001a9053507f7800000000000000000000000000000000000000000000000000000000000000816001815181106106f5576106f4610ccb565b5b60200101907effffffffffffffffffffffffffffffffffffffffffffffffffffffffffffff1916908160001a905350600060018560026107359190611011565b61073f9190610f2f565b90505b60018111156107df577f3031323334353637383961626364656600000000000000000000000000000000600f84166010811061078157610780610ccb565b5b1a60f81b82828151811061079857610797610ccb565b5b60200101907effffffffffffffffffffffffffffffffffffffffffffffffffffffffffffff1916908160001a905350600483901c9250806107d890611082565b9050610742565b50600082146108275784846040517fe22e27eb00000000000000000000000000000000000000000000000000000000815260040161081e9291906110ab565b60405180910390fd5b809250505092915050565b60606000600161084184610900565b01905060008167ffffffffffffffff8111156108605761085f611053565b5b6040519080825280601f01601f1916602001820160405280156108925781602001600182028036833780820191505090505b509050600082602001820190505b6001156108f5578080600190039150507f3031323334353637383961626364656600000000000000000000000000000000600a86061a8153600a85816108e9576108e86110d4565b5b049450600085036108a0575b819350505050919050565b600080600090507a184f03e93ff9f4daa797ed6e38ed64bf6a1f010000000000000000831061095e577a184f03e93ff9f4daa797ed6e38ed64bf6a1f0100000000000000008381610954576109536110d4565b5b0492506040810190505b6d04ee2d6d415b85acef8100000000831061099b576d04ee2d6d415b85acef81000000008381610991576109906110d4565b5b0492506020810190505b662386f26fc1000083106109ca57662386f26fc1000083816109c0576109bf6110d4565b5b0492506010810190505b6305f5e10083106109f3576305f5e10083816109e9576109e86110d4565b5b0492506008810190505b6127108310610a18576127108381610a0e57610a0d6110d4565b5b0492506004810190505b60648310610a3b5760648381610a3157610a306110d4565b5b0492506002810190505b600a8310610a4a576001810190505b80915050919050565b600080fd5b6000819050919050565b610a6b81610a58565b8114610a7657600080fd5b50565b600081359050610a8881610a62565b92915050565b600060208284031215610aa457610aa3610a53565b5b6000610ab284828501610a79565b91505092915050565b6000819050919050565b610ace81610abb565b82525050565b610add81610a58565b82525050565b6000604082019050610af86000830185610ac5565b610b056020830184610ad4565b9392505050565b6000602082019050610b216000830184610ad4565b92915050565b600073ffffffffffffffffffffffffffffffffffffffff82169050919050565b6000819050919050565b6000610b6c610b67610b6284610b27565b610b47565b610b27565b9050919050565b6000610b7e82610b51565b9050919050565b6000610b9082610b73565b9050919050565b610ba081610b85565b82525050565b6000602082019050610bbb6000830184610b97565b92915050565b60008115159050919050565b610bd681610bc1565b82525050565b6000604082019050610bf16000830185610ad4565b610bfe6020830184610bcd565b9392505050565b6000610c1082610b27565b9050919050565b610c2081610c05565b8114610c2b57600080fd5b50565b600081359050610c3d81610c17565b92915050565b600060208284031215610c5957610c58610a53565b5b6000610c6784828501610c2e565b91505092915050565b60008060408385031215610c8757610c86610a53565b5b6000610c9585828601610a79565b9250506020610ca685828601610a79565b9150509250929050565b6000602082019050610cc56000830184610ac5565b92915050565b7f4e487b7100000000000000000000000000000000000000000000000000000000600052603260045260246000fd5b600081905092915050565b7f496e73756666696369656e7420766f74696e6720706f7765722e204163636f7560008201527f6e743a2000000000000000000000000000000000000000000000000000000000602082015250565b6000610d61602483610cfa565b9150610d6c82610d05565b602482019050919050565b600081519050919050565b60005b83811015610da0578082015181840152602081019050610d85565b60008484015250505050565b6000610db782610d77565b610dc18185610cfa565b9350610dd1818560208601610d82565b80840191505092915050565b7f204861733a200000000000000000000000000000000000000000000000000000815250565b7f205265717565737465643a200000000000000000000000000000000000000000815250565b6000610e3482610d54565b9150610e408286610dac565b9150610e4b82610ddd565b600682019150610e5b8285610dac565b9150610e6682610e03565b600c82019150610e768284610dac565b9150819050949350505050565b600082825260208201905092915050565b6000601f19601f8301169050919050565b6000610eb082610d77565b610eba8185610e83565b9350610eca818560208601610d82565b610ed381610e94565b840191505092915050565b60006020820190508181036000830152610ef88184610ea5565b905092915050565b7f4e487b7100000000000000000000000000000000000000000000000000000000600052601160045260246000fd5b6000610f3a82610a58565b9150610f4583610a58565b9250828201905080821115610f5d57610f5c610f00565b5b92915050565b610f6c81610c05565b82525050565b6000604082019050610f876000830185610f63565b610f946020830184610ad4565b9392505050565b600081519050610faa81610a62565b92915050565b600060208284031215610fc657610fc5610a53565b5b6000610fd484828501610f9b565b91505092915050565b6000610fe882610a58565b9150610ff383610a58565b925082820390508181111561100b5761100a610f00565b5b92915050565b600061101c82610a58565b915061102783610a58565b925082820261103581610a58565b9150828204841483151761104c5761104b610f00565b5b5092915050565b7f4e487b7100000000000000000000000000000000000000000000000000000000600052604160045260246000fd5b600061108d82610a58565b9150600082036110a05761109f610f00565b5b600182039050919050565b60006040820190506110c06000830185610ad4565b6110cd6020830184610ad4565b9392505050565b7f4e487b7100000000000000000000000000000000000000000000000000000000600052601260045260246000fdfea264697066735822122097bfb2c1ebdd27d30c2ab4c45fd20bc612a1ba6e34cc0c4e0f9b019c87ca414e64736f6c63430008180033",
  "linkReferences": {},
  "deployedLinkReferences": {}
}